:020000040800F2
:10000000F8520020C56F0008916E0008936E00083A
:10001000956E0008976E0008996E000800000000B9
:10002000000000000000000000000000396D000822
:100030009B6E000800000000E16C00084D6C000899
:10004000E96F0008ED6F0008F16F0008F56F000818
:10005000F96F0008FD6F00080170000805700008C6
:10006000097000080D700008117000081570000874
:10007000197000081D700008217000082570000824
:10008000297000082D7000083170000835700008D4
:10009000397000083D700008417000084570000884
:1000A000497000084D700008517000085570000834
:1000B000597000085D7000086170000865700008E4
:1000C000697000086D700008717000087570000894
:1000D000797000087D700008817000088570000844
:1000E000897000088D7000089170000895700008F4
:1000F000997000089D700008A1700008A5700008A4
:10010000A9700008AD700008B1700008B570000853
:10011000B97000089D6E0008AB6E0008BD70000845
:10012000C1700008C5700008C9700008CD700008D3
:10013000D1700008D5700008D9700008DD70000883
:10014000E1700008E5700008E9700008ED70000833
:10015000F1700008F5700008F9700008FD700008E3
:100160000171000805710008B16E0008B56E000845
:1001700009710008BD6E00080D7100080000000044
:100180001171000815710008197100081D7100082F
:100190002171000825710008297100082D710008DF
:1001A000BF6E000831710008C56E000800F5E070F0
:1001B0000268914203D343681A44914202D3806893
:1001C0000028F5D17047DFF86C17086890B94FF434
:1001D000805048604FF480324FF0FF30C8600861B3
:1001E0000420DFF854378A604861C3F8BC01DFF8A7
:1001F0004C0708600120704701F1080313F0070F56
:100200000EBF0023C3F1080303F007031944D21AF9
:100210008161C26042F001034B60091D4FF0280C60
:1002200041F802C0DFF80C271369C36170472DE95C
:10023000FC4B074601F1080010F0070F0FBF89467D
:10024000C0F1080000F0070001EB000902F108010D
:1002500011F0070F06D002F10800C0F1080000F00D
:10026000070002441546A5EB090009EB0306A0EBC5
:10027000030B43F00303C9F80430AE4228BF01F07A
:1002800005FA2879C10758BF01F000FABBF1100F39
:1002900038BF01F0FBF9B869854208D1F9688B4491
:1002A000C7F80CB0BE614BF00100706051E1786995
:1002B00085420AD1B9688B44C7F808B07E614BF01B
:1002C0000100706046F80BB043E1686800F003017C
:1002D000012940F0AC80C008C0000190C0081F2870
:1002E00039D8AC68D5F80C800090454508BF01F0BE
:1002F000CDF9A54208BF01F0C9F968680099C008A6
:10030000C000B0EBC10F18BF01F0C0F9009907F1B0
:10031000280000EBC100844206D039698C42C0F04D
:100320008180E268AA427DD1A04506D10098396853
:10033000012383409943396076E0804506D03969CE
:1003400088456FD3D8F80800A8426BD1C4F80C8058
:10035000C8F8084068E0EC68D5F81880AC420CD0CA
:10036000A8683969884223D3C268AA4204BFA16839
:10037000A9421DD1C460A0601CE005F114010C6805
:1003800034B905F110010C68A4B101E011460C6804
:1003900004F114021068002802BF04F11002106872
:1003A0000028F3D13869814202D300220A6001E0BB
:1003B00001F06CF9B8F1000F36D0E96907F59870D3
:1003C00000EB81000268954208D10460A4B9E86995
:1003D0007968012282409143796025E0386980453F
:1003E00008D3D8F81010A94214BFC8F81440C8F8B0
:1003F000104001E001F04AF9B4B139698C4211D3DF
:10040000C4F81880286928B1884226BF2061846119
:1004100001F03CF9686938B13969884202D36061FA
:10042000846101E001F032F901996D188B4469682B
:100430004908490069604BF0010070604FEADB0435
:1004400046F80BB01F2C23D807F1280000EBC40896
:100450004546BBF1100F38BF01F018F9386820FA93
:1004600004F1CA0705D4012101FA04F404433C60F5
:1004700007E0D8F80800396988422CBF054601F02A
:1004800005F9C8F80860EE60B560C6F80C8060E059
:100490005FEA1B2008BF002123D0B0F5803F28BFB2
:1004A0001F211ED2A0F58072120C02F008029040AB
:1004B000A0F58051090C01F004018840A0F58043AB
:1004C0001B0CC2F10E0203F00203521AD21A98401A
:1004D00002EBD032D01D2BFA00F101F0010101EB4B
:1004E0004201F161002307F59872736102EB81000C
:1004F00033617A6822FA01F3DC0707D4012303FA97
:1005000001F1114379600660B0611DE002681F29A6
:100510001DBF4908C1F119010BFA01F1594600E06C
:1005200002465068C008C000584516D002F11003BA
:10053000C80F03EB8003490018680028F0D1386920
:10054000834204D31E60B261F660B66001E001F040
:100550009DF809F10800BDE8F68B396990688A4278
:1005600028BF8842F3D3C6609660B060F260002076
:10057000B061EEE72DE9FE4F04468B46A5692E4695
:10058000904699463146FFF711FE0268416802EB3A
:10059000010AAAF1270111F007000EBF0021C1F1E5
:1005A000080101F007010AEB0100A0F12F0706F195
:1005B00010018F4238BF374607F11802002101921F
:1005C0000091A8F1280259462046FFF715FE07F1D1
:1005D000080010F0070F18BF01F058F81B207860D2
:1005E00007F1080104F5E07090E80C5081E80C5028
:1005F000C0F800B0C0F80480C0F80C9081600722F9
:100600000198009900E0001D491C00F108035345C2
:100610004260F8D30129D8BF01F038F8B74200F0A2
:100620009580BF1B301D321DC15949084900D15169
:1006300047F0010070604FEAD70BF751BBF11F0F75
:1006400021D804EBCB0000F12805A846102F38BFB5
:1006500001F01CF8206820FA0BF1CA0705D401212B
:1006600001FA0BF10843206006E0A868216988427E
:100670002CBF804601F00AF8AE60C8F80C60C6F8DE
:100680000880F5606FE0380A08BF002123D0B0F57C
:10069000803F28BF1F211ED2A0F58072120C02F0ED
:1006A00008029040A0F58051090C01F00401884037
:1006B000A0F580431B0CC2F10E0203F00203521A94
:1006C000D21A984002EBD032D01D27FA00F101F087
:1006D000010101EB420104EB8102002302F5987055
:1006E000F16173613361626822FA01F3DB0707D4B9
:1006F000012303FA01F1114361600660B0611DE05E
:1007000002681F291DBF4908C1F1190107FA01F14B
:10071000394600E002465068C008C000B84216D012
:1007200002F11003C80F03EB80034900186800288A
:10073000F0D12069834204D31E60B261F660B560D7
:1007400011E003B0BDE8F04F00F0A0BF0BE021695D
:1007500090688A4228BF8842F3D3C6609560B06033
:10076000F2600020B06103B0BDE8F08F2DE9F041E8
:10077000704F05463868884608B9FFF724FDB96808
:1007800001EB08002F30491E20EA010188457DD287
:1007900005F5D876B06828B1326889188A4275D2D2
:1007A000884273D300F0B2FF01001CBF0C6811F146
:1007B000010F6BD03068201805F5D872306053688F
:1007C000984238BF18467060A86960BB286908B1B4
:1007D000814200D22961316174610020F0614FF0E3
:1007E000FF303A686A62286205F128020020D26070
:1007F000926002F1080757611761801C10322028AF
:10080000F5D34D48854208BFA4F1280228D055F8F9
:10081000040CC00805EBC002A2F108000A19121A64
:10082000283A01461CE005F5E070024600E09268B7
:100830007AB3136857681F44B942F8D1137B1F0776
:1008400027D4AB691768BB4223D3D2F804C06744EE
:10085000BB421ED2A444C2F804C0E868A9692218A9
:100860002846FFF7C9FC1FE08068C0B103689342C7
:10087000FAD1027B130712D4026801604368E418BE
:10088000446043462846BDE8F041D0E40020BDE87E
:10089000F0812A69914238BF29610A19E5E70023EE
:1008A00022462846FFF766FEE8688045EED2A0EBB8
:1008B0000800A969E86001EB0802AA6140F00100A4
:1008C000506048F00300486001F10800BDE8F08185
:1008D00030B4184B1A6882B94FF480525A604FF402
:1008E00080344FF0FF32DA601A610422124D9C60AE
:1008F0005A61C5F8BC21114A1A6011F1400F17D294
:100900008269AAB1C368283199420BD200F5E0711F
:100910000C68A24203D34D682C44A24202D38968DA
:100920000029F5D1C16999423CBF4FF0FF32C26145
:1009300000F0A8BECC4E0020AC4A00206859883C8C
:100940002DE9F84F00258946090AC9F1000B08BFB7
:10095000002323D0B1F5803F28BF1F231ED2A1F56D
:100960008072120C02F008029140A1F580531B0C1A
:1009700003F004039940A1F58044240CC2F10E0257
:1009800004F00204D21A121BA14002EBD132D11D95
:1009900029FA01F303F0010303EB4203074607F5CD
:1009A000987858F8230030B31F2B0FBF4C465C08D3
:1009B000C4F1190409FA04F4AC46594600E0640095
:1009C0004268D208D200A2EB09028A4203D2110087
:1009D000054600F06981426910304FEAD47B50F837
:1009E0002B00002A1CBF824294460028E7D18B4688
:1009F0006046B0BBBDBB012202FA03F35B00584264
:100A0000796803430B4000F04E81584203405B1E5F
:100A1000180B00F01000C340590901F00801CB4049
:100A20009A0802F00402D3405C0804F0020408189B
:100A3000E3401018C3F3400620183044F3401B185D
:100A400058F823000DE008464168C908C900A1EB29
:100A5000090159453CBF8B46054601690029F2D181
:100A600040690028F0D1002D00F01D81B868A0EB8E
:100A70000900834580F0178139698D42C0F01181EA
:100A80006868C008C00009EB0B01884218BF00F07D
:100A9000FDFD05EB0906B54280F00381EC68D5F851
:100AA00018A0AC420CD0A8683969884223D3C26828
:100AB000AA4204BFA168A9421DD1C460A0601CE085
:100AC00005F114010C6834B905F110010C68A4B1EA
:100AD00001E011460C6804F114021068002802BFFE
:100AE00004F1100210680028F3D13869814202D362
:100AF00000220A6001E000F0C9FDBAF1000F36D013
:100B0000E86908EB800001688D4209D1046020008B
:100B100014D1E8697968012282409143796026E026
:100B20003869824508D3DAF81010A94214BFCAF810
:100B30001440CAF8104001E000F0A8FDBCB13869CB
:100B4000844212D3C4F818A0286930B139698842A8
:100B500026BF2061846100F099FD686938B1396968
:100B6000884202D36061846101E000F08FFDBBF137
:100B7000100F0CD2D94449F00300291D6860281DCC
:100B800051F8092042F0010240F8092088E049F0BC
:100B9000030068604BF0010070604FEADB0046F82C
:100BA0000BB01F281DD807EBC00101F128043968DC
:100BB00021FA00F2D307A34605D4012202FA00F07D
:100BC0000843386006E0A068396988422CBF834634
:100BD00000F05CFDA660CBF80C60C6F808B0F460CD
:100BE0005EE05FEA1B2008BF002123D0B0F5803F04
:100BF00028BF1F211ED2A0F58072120C02F008023D
:100C00009040A0F58051090C01F004018840A0F546
:100C100080431B0CC2F10E0203F00203521AD21AD7
:100C2000984002EBD032D01D2BFA00F101F0010107
:100C300001EB4201F16100227261326108EB810037
:100C40007A6822FA01F4E30707D4012404FA01F1D7
:100C5000114379600660B0611DE002681F291DBF65
:100C60004908C1F119010BFA01F1594600E00246A9
:100C70005068C008C000584518D002F11003C80FD2
:100C800003EB8003490018680028F0D138698342DB
:100C900004D31E60B261F660B66001E000F0F6FCBD
:100CA00014E100F0F3FC0EE18B46A2E6396990688E
:100CB0008A4228BF8842F1D3C6609660B060F26075
:100CC0000020B061ECE72DE9F84F064688467168D0
:100CD00048420140491E080B00F01000C1404A097B
:100CE00002F00802D1408B0803F00403D9404D08FC
:100CF00005F002051018E9401818C1F3400428183F
:100D000006F5987A2044E14009185AF821104868FD
:100D1000C008C0000D46A0EB080909E0014648687C
:100D2000C008C000A0EB080048453CBF81460D4606
:100D300008690028F2D149690029F0D1306985425B
:100D4000C0F0BF806968C90808EB090BC9005945A4
:100D500018BF00F09BFC05EB08008542009080F076
:100D6000B080EF68AC69AF420CD0A86831698842A6
:100D700023D3C268AA4204BFB968A9421DD1C76083
:100D8000B8601CE005F114010F6837B905F11001D6
:100D90000F68A7B101E011460F6807F1140210684F
:100DA000002802BF07F1100210680028F3D1306953
:100DB000814202D300220A6001E000F067FC002CAF
:100DC00031D0E8690AEB800001688D4208D10760E4
:100DD0008FB9E8697168012282409143716022E015
:100DE0003069844205D32169A94214BF6761276134
:100DF00001E000F04BFCB7B13069874211D3BC6110
:100E0000286930B13169884226BF3861876100F0B6
:100E10003DFC686938B13169884202D378618761E5
:100E200001E000F033FCB9F1100F0BD24BF00300DE
:100E3000291D6860281D51F80B2042F0010240F87E
:100E40000B203DE048F003012A1D696049F00100D4
:100E500042F80800009941F80990D6F808804FEA56
:100E6000D80BBBF1200F28BF00F010FCB8F1000F29
:100E700022D006EBCB00776900F12804A246B8F136
:100E8000100F38BF00F002FC306820FA0BF1CA07DF
:100E900005D4012101FA0BF10843306006E0A06897
:100EA000316988422CBF824600F0F0FBA760CAF887
:100EB0000C70C7F808A0FC60C6F808900098706134
:100EC00004E000F0E3FB0020BDE8F28F05F108002C
:100ED000BDE8F28F2DE9FE4F0546AFF30080F52DFA
:100EE000DFF89C6780F004810B2D31BF10250B3596
:100EF000ED08ED003068EC08E04010F0030F46D03C
:100F0000C04300F00100041906F1280000EBC408FA
:100F1000E700D8F808506868C008C000B84218BF99
:100F200000F0B4FBD5F80890454508BF00F0AEFBD3
:100F30004D4508BF00F0AAFB6868C008C000B84271
:100F400018BF00F0A3FBC84507D13068012101FAA2
:100F500004F420EA040434600DE03069814508D3CC
:100F6000D9F80C10A94204D1C8F80890C9F80C802F
:100F700001E000F08BFB47F00300291D6860281D8D
:100F8000CA5942F00102C25105F10804F8E0B16803
:100F9000A94280F0BE80002800F0A1804FF0010837
:100FA00008FA04F1490000FA04F4484201430C40F5
:100FB00060420440641E200B00F01000C440610930
:100FC00001F00801CC40A20802F00402D4406308FA
:100FD00003F002030818DC401018C4F34007181887
:100FE0003818FC40241806F1280000EBC40AE7007A
:100FF000DAF80890D9F80400C008C000B84218BF59
:1010000000F044FBD9F808B0D14508BF00F03EFB22
:10101000D94508BF00F03AFBD9F80400C008C00069
:10102000B84218BF00F032FBDA4506D1306808FA42
:1010300004F420EA040434600DE031698B4508D3E0
:10104000DBF80C00484504D1CAF808B0CBF80CA076
:1010500001E000F01BFB7F1B45F0030009F10402D7
:10106000C9F8040047F00101515109EB0502019252
:10107000D751B4684FEAD40ABAF1200F28BF00F064
:1010800005FB34B3CDF800A006F12800756900EB2C
:10109000CA0AD346102C38BF00F0F8FA316800981D
:1010A00021FA00F2D30704D408FA00F008433060B4
:1010B00007E0DAF80800316988422CBF834600F067
:1010C000E5FACAF80850CBF80C50C5F808B0C5F8D6
:1010D0000CA0B76009F108040198706150E07068D5
:1010E000C0B329463046FFF7EEFD040011D047E0BB
:1010F00015F1400F28BF4FF0FF350AD20B35ED0830
:101100007068ED0028B129463046FFF719FC04004D
:1011100036D1B068A8421DD3411B726910290AD389
:1011200050197061B16041F001034360415045F0D6
:10113000030555600BE00021B1607161131D40F0A3
:1011400003015160111D1C5844F001040C5002F1C0
:10115000080415E0F06885420DD2401BB169F060CB
:101160004A19B26140F00100506045F003054D603E
:1011700001F1080404E029463046FFF7F7FA044677
:10118000AFF300802046FFF7EEBA002800D1704789
:101190002DE9F047A0F10805AFF30080DFF8E06427
:1011A00031698D42C0F05982686800F00302012A5B
:1011B00000F05382C2084FEAC209C20705EB0908D2
:1011C00039D42C6810F0030F00F0498260420544C6
:1011D0008D42A144C0F041827069854200F0C68012
:1011E000E408202C5ED2D5F80CA0AF68554508BFA6
:1011F00000F04CFABD4208BF00F048FA6868C00829
:10120000C000B0EBC40F18BF00F040FA06F1280090
:1012100000EBC400874205D031698F423FD3FA68A2
:10122000AA423CD1BA452CD13068012101FA04F41C
:1012300020EA04043460454580F00F82D8F8044069
:10124000E00740F10A82A10700F16881B06980459A
:1012500040F09F80F168B5618944C6F80C9049F070
:101260000100686071698D4202D100207061B06038
:10127000F069484580F0F38100213046FFF728FBF4
:10128000EDE1824506D03069824508D3DAF80810CE
:10129000A94204D1C7F80CA0CAF80870CBE700F047
:1012A000F5F9C8E7EC68AF69AC420BD0A868884292
:1012B00022D3C168A94204BFA268AA421CD1C4605B
:1012C000A0601BE005F11402146834B905F11002A6
:1012D00014689CB101E01A46146804F114031868FC
:1012E000002802BF04F1100318680028F3D18A42D5
:1012F00002D30021116001E000F0C8F9002F9AD05C
:10130000E96906F5987000EB81000268954209D101
:101310000460200011D1E869716801228240914384
:10132000716088E73069874205D33969A94214BFE3
:101330007C613C6101E000F0A9F9002C3FF47BAF37
:1013400031698C42ABD3A761286928B1884226BF96
:101350002061846100F09AF9686900283FF46BAF5E
:10136000316988429BD36061846164E798F8040026
:1013700000F0030003287FF45EAFC6F8089049F040
:101380000101D8F8040040084000C8F80400696072
:101390000AE0706980450AD1B16875618944C6F870
:1013A000089049F00100686045F8099057E1E408A9
:1013B000E400A144E408202C3AD2D8F80CA0D8F8D4
:1013C0000870D04508BF00F061F9B84508BF00F0CB
:1013D0005DF9D8F80400C008C000B0EBC40F18BF16
:1013E00000F054F906F1280000EBC400874207D052
:1013F00031698F42C0F08580FA68424540F08180B3
:10140000BA4507D13068012101FA04F420EA040446
:10141000346078E0824506D03069824571D3DAF8CD
:10142000081041456DD1C7F80CA0CAF808706AE0F1
:10143000D8F80C40D8F8187044450DD0D8F80800FA
:101440003169884223D3C268424504BFA16841453F
:101450001DD1C460A0601CE008F114010C6834B90F
:1014600008F110010C68A4B101E011460C6804F108
:1014700014021068002802BF04F11002106800284E
:10148000F3D13069814202D300220A6001E000F00A
:10149000FDF8002F37D0D8F81C1006F5987000EB37
:1014A0008100026890450AD10460200012D1D8F86A
:1014B0001C007168012282409143716023E0306911
:1014C000874205D33969414514BF7C613C6101E025
:1014D00000F0DCF8BCB131698C4212D3A761D8F8B6
:1014E000100028B1884226BF2061846100F0CEF848
:1014F000D8F8140038B13169884202D36061846140
:1015000001E000F0C3F849F00100686045F8099077
:1015100071698D420BD1C6F80890A0E064086400A0
:10152000C8F8044049F00100686045F809904FEAA6
:10153000D907202F22D206F1280000EBC704A046CD
:10154000B9F1100F38BF00F0A1F8306820FA07F1A8
:10155000CA0705D4012101FA07F70743376006E0FF
:10156000A068316988422CBF804600F08FF8A560E2
:10157000C8F80C50C5F80880EC6070E05FEA1920EC
:1015800008BF002123D0B0F5803F28BF1F211ED205
:10159000A0F58072120C02F008029040A0F5805174
:1015A000090C01F004018840A0F580431B0CC2F136
:1015B0000E0203F00203521AD21A984002EBD03204
:1015C000D01D29FA00F101F0010101EB420106F5FD
:1015D0009872002302EB8100E9616B612B617268F4
:1015E00022FA01F3DC0707D4012303FA01F11143C6
:1015F00071600560A8611DE002681F291DBF4908D0
:10160000C1F1190109FA01F1494600E002465068AA
:10161000C008C000484526D002F11003C80F03EBF4
:101620008003490018680028F0D13069834204D350
:101630001D60AA61ED60AD6001E000F027F8306A3E
:10164000401E30620BD1D6F8C80100E08068002847
:10165000FCD14FF0FF30306201E000F017F8AFF33B
:101660000080BDE8F087316990688A4228BF8842CF
:10167000E3D3C5609560A860EA600020A861DEE75A
:10168000AC4A002030BC002070470000012000F070
:1016900053B8F0B40246106895681318506803EB0D
:1016A0005004C0071DD54D441BE013F8017B05F81D
:1016B000017B491EF9D1A0B1B60813F8011B06F051
:1016C0000306032E08BF13F8016B01EB0621494204
:1016D000801C294405D011F8016B05F8016B401EF0
:1016E000F9D1A3420ED013F8016B16F0030104BF29
:1016F00013F8011BC91C30090F28DAD113F8010BAC
:101700000F30D6E7F0BC02F10C00704707490868BB
:1017100008B1002070470648C008C00008600549AD
:10172000C908C900091A0160704700BFF44E0020C3
:10173000FF520020F854002080B5AFF30080024A29
:1017400011001820ABBEFBE7260002000EB418B54E
:1017500004460898012817D1A06B20F48030A063BC
:10176000E168DFF830080140E160E16821F44011F0
:10177000E1600F98012803D1E06840F48010E06038
:10178000204600F0F2FB0FE0E06840F04000E0602F
:10179000204600F0EAFB0C990029A16B0CBF41F434
:1017A000803121F48031A1630699012907D1A16814
:1017B00041F00601A160A16841F02001A16012BCC6
:1017C0005DF810FB022A4FD1DFF8CC27DFF8CC37C9
:1017D00052189A4238BF0F2147D3DFF8C427DFF8E9
:1017E000C43752189A4238BF0E213ED3DFF8B827CB
:1017F000DFF8B83752189A4238BF0D2135D3DFF8D9
:10180000D027DFF8D03752189A4238BF0C212CD39A
:10181000DFF8C427DFF8C43752189A4238BF0B21CB
:1018200023D3DFF8BC27DFF8BC3752189A4238BF01
:101830000A211AD3DFF8B027DFF8B03752189A42DE
:1018400012D3DFF8AC27DFF8AC3752189A4238BF12
:1018500008210AD3DFF8A027DFF8A03751189942F2
:101860002CBF0621072100E00921C26822F4705232
:10187000C260C26842EA8122C2600020704781686B
:1018800041F0010102E081684908490081600020BF
:10189000704780B5C26822F0C0420129C26005D1FC
:1018A000C16841F00051C1603220F7E219B9C16846
:1018B00041F08041F7E7012002BD0EB42DE9F0436D
:1018C0000546044600260021002004EB8102491C45
:1018D0000F29C2F80401F8D3DDF84490B9F1000FE4
:1018E00005F500670AD1786840F002007860A06BC7
:1018F00040F40010A06300F062FB06E0A06B20F44F
:101900000010A063A06B40F4002005F56061A063A7
:101910000E603A683A600C98012805D1099A002AAD
:1019200014BF0121002100E00321204600F08BF8C4
:101930001021204600F06BF800B10126204600F08F
:1019400075F800B101260020386178612A46F861F7
:101950004FF67F334FF0904C4FF0006E002503E0C0
:101960000D600D618B60401C079988422AD202EB02
:10197000401101F51061D1F80080B8F1000FEFD5EA
:10198000002806BF02F51068C8F800E0C1F800C0E2
:10199000E7E70D600D618B60401C0799884213D208
:1019A00002EB401101F53061D1F80080B8F1000F71
:1019B000EFD5002806BF02F53068C8F800E0C1F88E
:1019C00000C0E7E70020E8E7386920F4807038615C
:1019D000A5616FF0804060610A9800F0E9FADFF8D5
:1019E00020060143A1610D9818B1A06940F00800DC
:1019F000A061B9F1010F05D1A06940F0804040F02D
:101A00000400A0613046BDE8F0035DF810FB8901D9
:101A100041F020010161DFF8EC15491E04D0026994
:101A20009306FAD40020704703207047102101610B
:101A3000DFF8D015491E04D00269D306FAD400207D
:101A400070470320704700F500600268114313E2FD
:101A500000F50060806810F0060006D0022818BF6C
:101A6000062801D1022070470F20704770B50C780E
:101A70004E782546012304F00F0400EB451203FACB
:101A800004F4012E00F50060DFF87C350DD1C66945
:101A9000A4B2344302F51062C4611068040412D485
:101AA00000F013F844EA85540AE0C56945EA0445A4
:101AB00002F53062C5611068040404D400F005F832
:101AC000234303431360002070BD10688C68C978FD
:101AD000C4F30A0444EA8144704730B500F033F897
:101AE00010D100F04CF800F021F8ADB2AC43D46353
:101AF000D46900F022F824EA0303D3610268DFF816
:101B00000C150FE000F02DF800F010F824EA054461
:101B1000D463D46900F020F824EA0344D461026855
:101B2000DFF8EC140A400260002030BDD46B0D7861
:101B300005F00F0503FA05F57047097801F00F016C
:101B40008B409BB270470B784C7800F5006200EB3D
:101B500043100123012C7047097801F00F018B40DD
:101B6000704700F530600468002C07D5046844F025
:101B700000640460056845F080450560704700F525
:101B800010600468002C07D5046844F00064046009
:101B9000056845F0804505607047F8B50B78DFF8BB
:101BA0007464DFF8747400EB43154B78012B00F577
:101BB000006460D14B6905F51065002B2B6909D1D4
:101BC0001F402F612E6946F400262E612B69DB0C25
:101BD000DB0422E0DB0CDB042B612B691F402F614F
:101BE0008B682F69D1F814C09C44ACF1010CBCFB8C
:101BF000F3F306EAC3463E432E612B694E69C6F3F2
:101C0000120633432B61CB78012B07D12B6923F0CC
:101C1000C0432B612B6943F000532B61012A03D190
:101C20000869002852D050E02B6843F004432B6031
:101C3000CE78012E0BD0486900285AD0606B097805
:101C4000012201F00F018A401043606351E0A36854
:101C5000DC0504D42B6843F000532B6003E02C68B0
:101C600044F080542C6000920A784B69C9689BB29A
:101C700000F0A5F83DE005F530652869C00CC0040A
:101C80002861286907402F618B68486940B9286935
:101C9000C3F3120303432B61286940F400200FE0D3
:101CA0001818401EB0FBF3F080B22B6906EAC0465C
:101CB0001E432E612B698E687043C0F312001843D7
:101CC000012A286102D1C86800B16861C87801287A
:101CD0000BD1A068C10504D4286840F000502860EA
:101CE00003E0296841F080512960286840F00440F1
:101CF00028600020F2BD30B50B78DFF81C5300EBF4
:101D000043144B78012B38D14B6904F51064002B38
:101D1000236909D11D402561256945F40025256108
:101D20002369DB0CDB0414E0DB0CDB042361236997
:101D30001D4025618B684D69AB4288BF2B464B61C6
:101D4000236943F40023236123694D69C5F3120518
:101D50002B43012A236101D1086928E0236843F05D
:101D6000044323604A6942B300F500600123426BDB
:101D7000FFF7F2FE1A4342631FE004F53064206966
:101D8000C00CC004206123691D402561486908B169
:101D900088684861206940F40020206120698B68D0
:101DA000C3F312031843012A206102D1C86800B1AD
:101DB0006061206840F004402060002030BDB8B56C
:101DC000059C64B9DB1C07E000EB023751F8045BAB
:101DD00007F58057641C3D60B4EB930FF4D30020EB
:101DE000B2BD10B5D21C002305E000F580545B1C89
:101DF000246841F8044BB3EB920FF6D3084610BDAC
:101E00000A78497800EB421001290CBF00F51060F8
:101E100000F530600168002904D41AB1016821F08E
:101E200080410160026842F40012026000207047A5
:101E30000A7800EB42104A78012A0CBF00F51060C6
:101E400000F53060026822F400120260C9780329AC
:101E500018BF022903D1016841F0805101600020C0
:101E6000704700F500600901026822F4FE6202601A
:101E700001F4FE610368194301600020704780B5DA
:101E800000F50060416821F0020105E080B500F531
:101E90000060416841F002014160032000F0E0F879
:101EA000002002BD0146486989690840704700F575
:101EB00000618869C9690840000C704700F500613D
:101EC0008869C969084080B27047024602EB411038
:101ED00000F5306002F50062806851690840704783
:101EE000024602F5006302EB411218695B6B01F0D8
:101EF0000F0102F51062CB40DB01926803F0800312
:101F0000184310407047406900F00100704700F529
:101F1000106100F500600A68D20AD2020A604168C6
:101F200041F480717CE010B5036CDFF8F040A3420F
:101F300000F5306002D30368002B14D40023036142
:101F40000129046944F400240461036943F018037F
:101F50000361036943F0C043036104D14261016836
:101F600041F080210160002010BDDFF8982011466B
:101F7000491E0DD00369002BFAD5016941F001011A
:101F80000161521E04D00169CB07FAD400207047CA
:101F900003207047BFFFBDFF405327FF00350C00F3
:101FA000401E1BFF40420F0000DC0BFF804F120061
:101FB00018B9A06940F01000A061A1697047A06B3A
:101FC00020F40020A063A06B20F480207047000064
:101FD000808CF9FE20D6130060B6E5FE60E31600A3
:101FE00000D3CEFE40771B00C05BB3FEC091210042
:101FF00000CA91FE20753800E05459FEE09C410073
:1020000000383C80410D030000800010007833EC64
:102010000078F3EF0000F81FFFFF07E00B30544F8C
:1020200041600020704730B4002513E050F8042BC5
:10203000D30744BFA9F101039A18091F042942F8E4
:10204000045BFAD213468C0744BF15809B1CC9075A
:1020500048BF1D7050F8041B0029E7D130BC704701
:1020600038B5044600F010F814F1010F054602D00F
:1020700004480178641800F007F8401BA042FAD326
:1020800031BD00BF0C00002001484068704700BF10
:102090000C00002070B504008AB04BD0266804F50F
:1020A0006F75687820B900212970204600F002FC85
:1020B00003206870F16BC8055CBF002121612068B6
:1020C000FFF7E1FB83B000F048F80EBC2068FFF793
:1020D0003DFB00282CD120680021FFF7DAFB00210E
:1020E0001C2000260AE010FB01F222443C320123AE
:1020F00053701170D180002300F028F8626891427B
:10210000F1D3002109E010FB01F2224402F5FE7236
:1021100000231170537000F019F862689142F2D3F5
:1021200083B000F01AF80EBC2068FFF7C6FB18B1A8
:1021300002206870012007E084F8380001216970EE
:102140002068FFF7A3FE00200AB070BD491CD670BE
:102150009360D6605361C9B27047211D684634222E
:1021600000F0F6BC10B500F0F4F901D1022010BD6A
:1021700000F0F5F92068FFF782FBFFE12DE9F84F49
:1021800007463C682046FFF7BEFE0028A14640F007
:10219000D68100F0DBF9002800F0D18100F0D6F9FB
:1021A000800704D53868416901F00201416100F0FF
:1021B000CDF9C00635D53868816921F010018161FB
:1021C0001C20256A05F00F014143781800F5FE76C2
:1021D000C5F34340022812D147F6F07005421BD0E8
:1021E000F168C5F30A122046FFF7FBFDF168B269FA
:1021F000C5F30A1001448018F160B0610CE00628B4
:102200000AD1082207F571712046FFF7EAFDB1698E
:10221000C5F30A104118B1613868816941F01001B5
:10222000816107F57170009000F090F900034CD5C2
:102230003868FFF73CFE0025040045E0E00741D583
:102240003868E9B2FFF741FE064609EB451000F594
:102250003068F00706D50121C8F80810384629462D
:1022600000F0CAFA30071DD50821C8F808103868F0
:10227000DFF838B6D0F840A000EB451101F530602A
:10228000DA45816804D3090444BF4FF400428260F8
:10229000384600F064FBDA4504D33869012801D1DF
:1022A00000F04FF9F00644BF1021C8F80810B0063E
:1022B00044BF2021C8F80810B00444BF4FF40051B7
:1022C000C8F808106D1C6408B8D100F03FF940034D
:1022D00009F5006657D53868FFF7F0FD054600247C
:1022E0004FF01C08002D4DE0E80749D53868E1B2F1
:1022F000FFF7F6FD824609EB441000F5106B5FEA2C
:10230000CA701ED5716B012004F00F02904081430A
:1023100071630121CBF80810386901280DD108FB41
:1023200004F03818816C426C0A448264002C04BFAB
:10233000386D002801D100F004F9E1B2384600F010
:102340001EFB5FEA0A7044BF0821CBF808105FEA61
:10235000CA6044BF1021CBF808105FEA4A6044BF4E
:102360004021CBF808105FEA8A7044BF0221CBF805
:1023700008105FEA0A6003D52146384600F0EFF9FD
:10238000641C6D08B0D100F0E1F8002816D5716822
:1023900049084900716097F8F403012806D100212B
:1023A00087F8F413384600F03BFC02E0384600F0B2
:1023B0001EFB3868416901F00041416100F0C6F838
:1023C00000050AD5B168C80744BF384600F0FAFADC
:1023D0003868416901F40061416100F0B7F8C00458
:1023E00051D5716849084900716010213868FFF7BC
:1023F0000EFB00204FF67F3118E009EB401202F58A
:10240000106302F530629960401C1C6824F40014CB
:102410001C601D6845F000651D609160136823F421
:1024200000131360146844F0006414607A689042EA
:10243000E3D3F06940F00110F061386B50B1D6F889
:10244000840040F00B00C6F88400706C40F00B0074
:10245000706409E0706940F4005040F02B00706136
:10246000306940F00B003061306820F4FE6030606D
:102470003969009A3868C9B2FFF755FD3868416973
:1024800001F48051416100F061F8800416D538688C
:10249000FFF73DFD3868FFF7DBFAF86000F048FC15
:1024A0000146FA683868D2B2FFF78CF9384600F076
:1024B00073FA3868416901F40051416100F046F84F
:1024C000000707D5384600F063FA3868416901F023
:1024D0000801416100F03AF8C00208D500213846F1
:1024E00000F08DFA3868416901F48011416100F013
:1024F0002DF8800208D50021384600F07CFA3868B3
:10250000416901F40011416100F020F8400007D555
:10251000384600F078FA3868416901F0804141613D
:1025200000F014F840070AD539684C68600744BFCA
:10253000384600F06CFA386841680C434460BDE8E6
:10254000F18F009A38680121FFF7EDBC3868FFF77A
:10255000A9BC044694F8BC232068012A7047A36AEA
:102560000122012B84F8BC2306D1A269012A03D0E1
:10257000826B42F480328263FFF781BC002084F8D2
:10258000BC0310BD10B500F00BF801D1022010BD46
:1025900000F00BF884F838102068FFF762FCEDE7D4
:1025A000044694F8BC0301287047012084F8BC035A
:1025B000704738B5054601F00F041C204443281924
:1025C0000C0647BF00F13C04012000F5FE7400201A
:1025D00001F00F0160702170A260E370607808B1B3
:1025E0002178E180022B04BF0020207195F8BC0304
:1025F000012801D1022032BD012085F8BC0321460B
:102600002868FFF733FA74E010B5044601F00F02B2
:1026100000F097F800F088F801D1022010BD00F01A
:102620008AF8FFF75AFAA9E738B500F01EF803F563
:10263000FE73002500F020F808BF1A6108E038B5E5
:1026400000F013F83C33012500F016F808BF1A61BA
:10265000026900680029D2B2194602D1FFF74BFB8C
:1026600001E0FFF79AFA002032BD1C4601F00F0589
:102670001C235D43431970475C6101F00F01002486
:102680009C61DA605D7019700469012C704738B57F
:1026900005460C46696804F00F00814201D2012012
:1026A00032BD1C21220605D54843284400F13C01D7
:1026B000012005E011FB04F1681800F5FE7100200F
:1026C000487001228A7004F00F040C7095F8BC0366
:1026D000012801D1022032BD85F8BC232868FFF70C
:1026E0008FFB34B92969286805F57172C9B2FFF703
:1026F0001AFC002085F8BC0332BD10B5044601F079
:102700000F026068904201D2012010BD00F019F85C
:102710000023837000F008F801D1022010BD00F002
:102720000AF8FFF785FB29E701F00F01017094F823
:10273000BC1301297047012284F8BC23014620689C
:1027400070471C204243A0180A0603D53C300123E1
:102750004370704700F5FE700022427070472DE90B
:10276000F8460E4681461C207043484400F13C0563
:10277000A8696969D9F800A0814238BF012039D31E
:10278000AF68081A874288BF0746FF1CBF080AEBDC
:1027900046126869A96902F5106293699BB2BB424F
:1027A0001AD3814218D2B8B1F2B2AC68411AD9F842
:1027B0001000C0B200908C42504688BF0C46E968B9
:1027C000A3B2FFF7FCFAE8682044E860E71CA969B7
:1027D0006418BF08AC61DAE781420AD30AF50062E7
:1027E0000121506B06F00F0601FA06F620EA0606F4
:1027F00056630020BDE8F286F8B505460C462B6806
:10280000196C03EB441000F5306005F571728668B1
:102810002F69012F2BD13707244B04D5994242D37E
:10282000310429D43FE0B70602D5202181603AE087
:1028300016F0280F37D1994201D331041CD41C2340
:1028400063432B4403F501710E6800690B68C0F304
:102850001200361A48680E6103444B60002C04BF16
:10286000D5F8100200281AD12868012115E0104F70
:10287000B9420AD1310403D54FF40042826012E01C
:10288000B1060CD52022826009E0002C04BFD5F8E7
:102890001002002803D100211846FFF744FBE1B2E3
:1028A000284600F062F80020F2BD00000B30544FC3
:1028B0000A31544F38B586B0044601A8142100F0FF
:1028C000A5FA24686D4DAC4247D100206C4C6D4D8B
:1028D00000900222216841F0020121604FF4504132
:1028E000206800F0020000900098019102920021FF
:1028F0000391049128460C21059101A900F08AFA60
:102900004FF400500021019002910391284601A943
:1029100000F080FA002000900022216841F0005170
:1029200021600521206800F00050009000984A20A6
:1029300000F08CFB4A2000F0A6FB002205214B2072
:1029400000F084FB4B2000F09EFB002205214D206F
:1029500000F07CFB4D2000F096FB07B030BD00F589
:102960007171D0F8040400F0DEBB0B461C22534307
:10297000C218D0F80404D2F8082200F002BC0B46BA
:102980001C225343C218D0F80404926C00F033BCEC
:10299000D0F8040400F0BDBC38B504460125E06859
:1029A00008B9002503E0022818BF01F055F8D4F853
:1029B0000404294600F099FCD4F80404BDE8324030
:1029C00000F068BC10B50446D4F8040400F090FC94
:1029D000206800F56060016841F001010160206A33
:1029E00020B12948016841F00601016010BDD0F80E
:1029F000040400F085BCD0F8040400F098BCD0F8C2
:102A0000040400F092BCD0F8040400F092BCD0F8AA
:102A1000040400F090BC10B5017801292AD11B4CA8
:102A2000C4F80404C0F8C442062114482060616060
:102A3000002002222061E0612062606201212063A7
:102A40006063E260A261E1622046FFF723FB08B108
:102A500001F002F84FF40071204600F0DDF880220A
:102A60000021204600F0B7F84FF4BA720121204649
:102A700000F0B1F8002010BD00000000000004408C
:102A8000303802400004024010ED00E08C3D002090
:102A900080B5D0F8C402FFF765FBBDE802403DE019
:102AA00010B51C461346D0F8C4022246FFF781FD3C
:102AB000BDE8104032E080B5D0F8C402FFF7A4FDB5
:102AC000EBE780B5D0F8C402FFF7E1FDE5E780B59C
:102AD000D0F8C402FFF711FEDFE7D0F8C42201F0FE
:102AE0007F031C204343D018090602D590F83E000E
:102AF000704790F8FE01704780B5D0F8C402FFF728
:102B000041FDCAE780B5D0F8C402FFF798FDC4E7DD
:102B100080B5D0F8C402FFF787FDBEE7014600206C
:102B200021B1022901D10120704703207047000024
:102B300062B38B0708D0521E11F8013B00F8013B2D
:102B400000F024808B07F6D1830740F0208000BF7F
:102B5000103A07D330B4B1E83810103AA0E8381072
:102B6000F9D230BC530724BFB1E80810A0E8081020
:102B700044BF51F8043B40F8043BD20724BF31F86E
:102B8000022B20F8022B44BF0B7803707047121FF2
:102B900017D35B0009D151F8043B20F8023B1B0C12
:102BA000121F20F8023BF6D20BE051F8043B00F86C
:102BB000013B1B0A20F8023B1B0C121F00F8013BD3
:102BC000F3D238BF121D521E24BF11F8013B00F88A
:102BD000013BF8D8704770B50068436A0C0003D118
:102BE00043EA0242826215E0846A03EB1443002444
:102BF00006E000EB8505641CD5F8046103EB164381
:102C0000E5B24E1EB542F4D300EB810043EA024226
:102C1000C0F80021002070BD0068416200207047AC
:102C2000704700002DE9F04104000F4678D0584E5F
:102C3000306800F00F00B84202D200F073F86FD194
:102C40002068544D810712D5400703D5A96841F487
:102C5000E051A9602078010703D5A86840F46040DE
:102C6000A860A968A06821F0F0010143A96021785B
:102C7000C8074DD56068012802D129688A0305E09C
:102C8000022818BF032803D129688A0103D447E02A
:102C900029688A0744D5A968890840EA8100A860A4
:102CA000FFF7F2F98046A868616800F00C00B0EB0D
:102CB000810F2DD0FFF7E8F9A0EB080041F2893130
:102CC0008842F0D3032021E02078410705D5AA6887
:102CD000E06822F4E0520243AA602178080706D592
:102CE000A968206921F4604141EAC001A96000F0AF
:102CF0005DF8AA682849294BC2F30312895CC840D1
:102D000018602748006800F0CDFE0020BDE8F08183
:102D1000306800F00F008742D6D200F003F8D3D01D
:102D20000120F3E73770316801F00F01B9427047B5
:102D30001A480068704719481A4A006813681A4907
:102D4000C3F3822206E01548164A00681368164944
:102D5000C3F34232895CC840704710B50F2202604D
:102D6000104A136803F003034360146804F0F0048E
:102D70008460136803F4E053C3601268D20802F45D
:102D8000E05202610248026802F00F020A6010BDC0
:102D9000003C024000380240FC6E00081800002091
:102DA0001400002008380240E06F000830B5144CD1
:102DB000606800F00C00042802D0082802D01DE052
:102DC000104830BD226820680023410202F03F0213
:102DD00004D525680B49C5F3881003E020680A492B
:102DE000C0F38810A1FB000100F09AFE2168C1F336
:102DF0000141491C4900B0FBF1F030BD024830BD33
:102E00000438024000127A000024F400002200F08E
:102E10009FBF00002DE9F84F0D464FF000087149A3
:102E20000F22012304462E6803FA08F000EA06097F
:102E3000814540F0CA804FEA480C032606FA0CF69A
:102E40006FEA060E6E68012E18BF022E03D0112EF7
:102E500018BF122E11D1A668EF680EEA060607FA0F
:102E60000CF73E43A660666826EA00006E68C6F36B
:102E7000001606FA08F630436060E068AE680EEAB5
:102E8000000006FA0CF63043E0604FEA88006E68F6
:102E9000022E18BF122E12D14FEAD80604EB860676
:102EA00000F01C07D6F820A002FA07FB2AEA0B0A5A
:102EB000D5F810B00BFA07F747EA0A073762266819
:102EC0000EEA06072E7906F0030606FA0CF63E43D4
:102ED00026606E68F60078D5002600964FEA980CBA
:102EE0000E68DFF804E146F480460E6000F00C0046
:102EF0000E6806F480460096009E5EF82C7002FA7A
:102F000000F627EA0606394FBC4208BF00272CD03E
:102F1000374FBC4208BF012727D0364FBC4208BFFD
:102F2000022722D0344FBC4208BF03271DD0334FA5
:102F3000BC4208BF042718D0314FBC4208BF052748
:102F400013D0304FBC4208BF06270ED02E4FBC42D4
:102F500008BF072709D02D4FBC4208BF082704D05F
:102F60002B4FBC420CBF09270A2707FA00F0304359
:102F70004EF82C006FEA090C264806680CEA060E8B
:102F80006E68F70348BF49EA0E0EC0F800E04668D5
:102F90000CEA060E6E68B70348BF49EA0E0EC0F889
:102FA00004E086680CEA060E6E68F70248BF49EA3C
:102FB0000E0EC0F808E0C6680CEA060E6E68B6028F
:102FC00048BF49EA0E0EC0F80CE008F10108B8F15C
:102FD0000F0F7FF628AFBDE8F18F02B909048161B8
:102FE00070470000443802400838014000000240A9
:102FF0000004024000080240000C024000100240A1
:103000000014024000180240001C02400020024050
:1030100000240240003C01400901020002D41F4884
:10302000815470471E4B02F00F021A4402F8041C30
:1030300070471C4B19684FF6FF020002114000F464
:10304000E0600843184908431860704738B5154BCD
:103050001C68C4F30223C3F10704052C28BF042411
:103060001D1D072D34BF0023DB1E012505FA04F4C6
:10307000641E2140994005FA03F35B1E1A40114378
:10308000BDE83440C8E7010007D4012200F01F0169
:10309000064B8A40400943F82020704700E400E0D6
:1030A00018ED00E00CED00E00000FA0500E100E0A2
:1030B00038B508B9032032BD00F52774E3690BB1B8
:1030C0000025E561236B0BB10025256301B1A161EA
:1030D000012121700270BDE83240FFF79CBC1CB595
:1030E0000022ADF8002009B9032016BD00F52E74AA
:1030F000684621608A6A90476061002016BDFFF72C
:10310000C7BC80B5D0F8B832032213B11A68904713
:103110000246104602BD80B5D0F8B8220AB1526806
:103120009047002002BD38B5044604F2AA2528467F
:1031300001F040F804F5257001210160828B817D4A
:10314000426011F01F0003D002280DD006D311E019
:1031500029462046BDE8344000F01ABE29462046E4
:10316000BDE8344000F091BE29462046BDE8344019
:1031700000F0AFBE2046BDE8344001F08001FFF70B
:10318000A0BC38B5044610460B0004F5257224D1C6
:103190001168032912D104F5AE714B680D68AB427A
:1031A0000ED2ED1A04F5AE730D602A4659688A42B4
:1031B00088BF0A460146204601F04FF8002032BD84
:1031C000516A086928B1107A032802D1096920469A
:1031D0008847204601F049F8F0E7536A986940B102
:1031E000107A032805D19A69204690470100E5D05E
:1031F00032BD032032BD38B5054610460A0005F53C
:10320000257439D1216802292FD1EA69296A9142AE
:1032100006D2521AEA610146284601F016F80DE07E
:1032200013D1A869884210D3616888420DD2002268
:103230000021284601F009F80020606000230022E8
:1032400000212846FFF764FC0FE0616AC86828B1D6
:10325000207A032802D1C968284688478021284659
:10326000FFF72FFC284601F007F8207B012804BF58
:1032700000212173002032BD626A506940B1207A7A
:10328000032805D15269284690470100F2D032BD8B
:10329000032032BD38B5044604F525720120002113
:1032A0001072116061600025906A156128B1526A40
:1032B00061685368C9B22046984740230022002124
:1032C0002046FFF7EDFB04F5B0700121402281801C
:1032D00002604023002280212046FFF7E1FB01200D
:1032E000A08440212162002032BD0174002070477B
:1032F00000F52770042201784170027000207047A9
:1033000000F527700178042904BF4178017000207E
:10331000704780B500F527710A78032A03D1C9697F
:10332000C96901B18847002002BD00207047002014
:1033300070470020704780B500F5277101220A70A0
:10334000CA691AB141685268C9B29047002002BDEB
:10335000F8B590B000F098FF00F0FFF800F0A5F984
:10336000DFF89046DFF8900604F5D07504F1980672
:10337000286404F5F07000F0A1FFDFF880062060FB
:1033800000216160A160E160A162E162216361638B
:10339000204600F0A3FF0121204601F052F86846C4
:1033A0001C21FFF733FD01217160102131614FF4C1
:1033B000C071DFF84C063060B16104204FF4006149
:1033C0000022F0603162B260F261726240204FF41C
:1033D00000517061B1620422029202200721009024
:1033E00001910391032205900690049269463046AC
:1033F00001F078F8DFF80C06DFF80C167063B163A3
:103400000020F06300214FF4804031647064B164A7
:10341000F1643165716504F1CC06304601F080F845
:103420000021304601F024F90021304601F038F93E
:1034300000F0EBF8DFF8D40520644FF4827100202F
:10344000A064E0642065606561644FF40070A0656D
:103450001821E165002020666066A0660A21E16609
:1034600004F1400001F042F902A81021FFF7CEFC60
:103470000FF2E850DFF89815D0E90023CDE90023DA
:1034800000206860A860E86028616861A861296020
:10349000284601F06DF94FF48050029002A92846A9
:1034A00001F039FA0021009101912846694601F0A6
:1034B00029FB4FF4613004F59076002170600C20F8
:1034C0007061B160F1603161B161F1613046DFF886
:1034D0004475376001F05CFB002200213520FFF7C6
:1034E000B5FDF868DFF8301540F0805040F020005E
:1034F000F86031644FF4E130706400210C20706595
:10350000B164F1643165B165F16504F5B07001F045
:103510003FFB0FF250500121D0E90023CDE90023F9
:10352000684601F024FC28651C2209A80FF23C51D2
:10353000FFF70EFB002109A801F0E3FBA8641C22A1
:1035400002A80FF24451FFF703FB296D02A801F016
:10355000D8FBE86401F0D0FBFEE780B59EB012A86E
:103560003021FFF753FC01A81421FFF74FFC06A8F8
:103570003021FFF74BFC002000904FF48033DFF840
:103580009C04016841F0805101600021006800F056
:10359000805000900098DFF888040091026842F49F
:1035A000404202600122006800F44040009012A8EE
:1035B0000099129202214FF480021891199204216D
:1035C000A8221A911B920221072213931C911D928B
:1035D00001F0ECFB022102910F204FF4A051019069
:1035E0000022049105910392052101A8FFF71AFB1F
:1035F0000821322206910A92022100220C910F9298
:1036000006A801F065FD1FB000BD30B58DB068465D
:103610003421FFF7FBFB00200121DFF80844606044
:10362000A060E0602061A1610920606103211D208C
:10363000E061216240F20D10606240F2431140F2FD
:103640001710E062A16204F1340040F24711002239
:10365000DFF8D4532163028082702560204601F098
:1036600051FE02220492F0210191FF2307220593CB
:10367000089200204FF4A0710090029003910690F0
:103680004FF4C063F0220B9107930A9200210CA81B
:103690004FF05043ADF83010002209938270694614
:1036A000204601F0FDFE0DB030BD2DE9F04186B0A1
:1036B00068461421FFF7AAFB0024DC48DC4DDD4EF0
:1036C000DFF87483DD4F05940168DD4C41F004019F
:1036D0000160026802F00402059200220599059239
:1036E000036843F020030360016801F0200100F04B
:1036F0008AF843F080030360016801F0800100F064
:1037000082F843F001030360016801F0010100F059
:103710007AF843F002030360016801F0020100F04F
:1037200072F843F040030360016801F0400100F0CB
:103730006AF843F010030360016801F0100105917D
:10374000059905921621036843F008030360006899
:1037500000F00800059005982046FFF73EFC002287
:1037600080212846FFF739FC00224FF440513046B3
:10377000FFF733FC00224FF4C0414046FFF72DFC19
:10378000162100F045F82046FFF744FB48F20700F9
:10379000009001970021029128466946FFF73AFB05
:1037A000802100F035F82846FFF734FB20210091F6
:1037B00001970021029120466946FFF72BFB042068
:1037C000002100900191029169469E48FFF722FB7B
:1037D0004FF400600021009001910291304669464B
:1037E000FFF718FB4FF4405100F012F83046FFF796
:1037F00011FB4FF4C04100F00BF84046FFF70AFB05
:1038000006B0BDE8F08105910599059203687047FF
:1038100000910122002102910391019269467047B3
:1038200010B58948894A417F136800F12004635428
:1038300090F82020552A06D1491CCBB20B2B02DB75
:10384000012101770021417710BD38B57E48804BBA
:10385000B0F900100A0044BF01F5B4710180B0F95D
:1038600002100A0044BF01F5B4714180B0F90410A0
:103870000A0044BF01F5B4718180B0F900105A29E3
:1038800002DA11F1590F01DA00210EE0B3F900203C
:1038900091421EBFB3F90420B0F90440944205D010
:1038A000A21A02EBD27201EB62015972B0F9021056
:1038B000472902DA11F1460F01DA002103E0B3F9DA
:1038C0000220914200D09972D0E90045C3E9004539
:1038D00003F10800BDE8324001F08EBEB0B5B4245B
:1038E000594D0CE0287D401C287505E0687D401C82
:1038F000687501E0FFF7A9FF012001F031FA287F88
:103900000028F9D0002129770B2205F1200105F1CB
:103910000800FFF71DF9287A5528E3D1E97BA87B39
:103920006A7BEB7A40EA0120297B41EA0221AA7AEC
:1039300042EA03226B7A512B00B209B212B202D0D2
:10394000532B15D0D2E71201971302EB5742D21333
:10395000AA8509018A1301EB5241C913E9850001C7
:10396000811300EB5140C013288600F019F8C3E71B
:1039700012FB04F2931302EB5342D2132A8011FB81
:1039800004F18A1301EB5241C913698010FB04F062
:10399000811300EB5140C013A88000F001F8A9E7A3
:1039A000297C687C41EA002109B2642091FBF0F097
:1039B000A886704710B501F024FE1F4C012200F0CC
:1039C0000CF84FF4FA7001F0CBF9002200F005F882
:1039D0004FF4FA7001F0C4F9F0E74FF400512046BB
:1039E000FFF7FBBA00681B49884208BF01F02ABEF6
:1039F00070470000B84800200030024000B002408C
:103A0000400100A0005C0040A08601000050014081
:103A100000000140005000400010014040380240CA
:103A200000700040844C00200068014030380240A3
:103A300000000240000C024000180240000012107A
:103A40000008024000040240944E00200450004050
:103A5000E44E00200010004070470000000000000D
:103A6000000000000000000000000000AC6F000833
:103A7000B5390008000000000000000080000000D0
:103A80000000000000000000B86F0008DD380008EA
:103A9000030000000000000000040000000000001F
:103AA0000000000018B5014687B000223620FFF75D
:103AB000CDFA3620FFF7E7FA00200090144C1548A5
:103AC000016841F01001016001A9006800F01000D8
:103AD0000090009802A8FFF740F9FFF72CF90E4973
:103AE000216040F2E73240000C49E260B0FBF1F0A7
:103AF000401E606000222261A260204600F038FE75
:103B000018B9204600F041FE00E0012008B010BDC9
:103B1000544E0020403802400010004040420F0048
:103B2000BBBBE1B1B2F5803F80F07E80022A1ED996
:103B30008C46B1FBF2F102FB11C31B0443EA1043B4
:103B4000B3FBF2FC02FB1C3380B240EA0343B3FB3D
:103B5000F2F002FB103240EA0C4000237047022AC8
:103B600005D98446B0FBF2F002FB10C270474AB19F
:103B700005D100F0010249085FEA300070470022D9
:103B80000023704701F066BD0B00020000210020F9
:103B90007047904271EB030CF6D3B3F5803F2FD200
:103BA000F0B5B3FA83F7B1FA81F4A7F10F0E3D1B1C
:103BB0005340CEF1200602FA0EF2F3415340B5F124
:103BC0000F0746D80F3C2C444140C4F12006A040CA
:103BD000F1414140B1FBF3F603FB1611A2FB064590
:103BE000001BA94102D2761E8018594180EA0102C9
:103BF00021FA0EF362FA0EF200215A403046F0BD6F
:103C000030B4B1FBF3FC03FB1C11A2FB0C45001B01
:103C1000A94103D2ACF1010C8018594130BC0246D5
:103C20000B46604600217047B2F1807F65D3F0B546
:103C3000B2FA82F7B1FA81F4C7F10F063D1B22FAFE
:103C400006F307F1110EF24120355A40B5F10F0786
:103C5000B8D94140C4F12006A040F1414140B1FB38
:103C6000F3FC03FB1C11A2FB0C45001BA94103D272
:103C7000BCF1010C801859410F2F12D30F3FC9031B
:103C800041EA5041B1FBF3F603FB1611A2FB0645D6
:103C9000D4EBC030A94102D2761E8018594146EAC1
:103CA000CC3C07B34140C7F12006B840F141414048
:103CB000B1FBF3F603FB1611A2FB0645001BA9415D
:103CC00002D2761E8018594180EA010221FA0EF3D1
:103CD000C7F1200462FA0EF20CFA07F05A402CFAEF
:103CE00004F13043F0BD80EA010221FA0EF3002115
:103CF00062FA0EF260465A40F0BD8C46B1FBF2F11A
:103D000002FB11C31B0243EA1063B3FBF2FC02FB8C
:103D10001C331B024CEA002043EA1063B3FBF2FCA5
:103D200002FB1C331B024CEA002043EA1063B3FB86
:103D3000F2FC02FB1C331B024CEA002043EA106336
:103D4000B3FBF2FC02FB1C324CEA0020002370475C
:103D500000B500BF130096469446103928BFA0E86E
:103D60000C50FAD85FEA417C28BF0CC048BF40F82D
:103D7000042BC90728BF20F8022B48BF00F8012BED
:103D800000BD00004178007840EA01207047000043
:103D9000F8B500240546087810F0600005F5277690
:103DA00008D0202818BF40282FD1F26993682846F0
:103DB000984731E04878092827D8DFE800F04059D3
:103DC0002653260905262F2A284600F015F95AE021
:103DD0008888002804BFC888002816D14F88802F03
:103DE00013D23078032807F07F070ED0B77039461A
:103DF0002846FEF781FE284600F037FA002F07BF5D
:103E000001213170022030703DE0284600F0E7F9D2
:103E100039E0284600F07BF9044634E0C8880128E0
:103E2000F3D13278521E012A04D9921EEDD101221B
:103E3000291D13E0AC60012205F108010EE0307885
:103E4000401E0228E1D8CB88022BDED1B0680121C8
:103E500000B10321E960022205F10C01284600F0BF
:103E6000ECF910E0488801280DD10121B16007E08C
:103E70003078401E0228C8D84988012903D1B4608F
:103E8000284600F0F2F92046F2BD70B50E46044611
:103E90003078002510F060001CBF2028402814D185
:103EA00004F527721078401E02280ED83379022BB1
:103EB0000BD2D2699368204698470546F08830B9FE
:103EC000280004D100F01DF901E000F01EF9284699
:103ED00070BD2DE9F0410E460025804630783179DD
:103EE00010F0600008F5277707D0202818BF402879
:103EF00063D100F07CF8054663E07078002837D085
:103F0000012815D0032858D13A78022A16D0032A5E
:103F100053D1708840B9002918BF802904D0F08897
:103F200010B94046FEF7CDFD404600F09EF948E04E
:103F30003878022802D003280CD03EE0002918BFB0
:103F400080293AD04046FEF7BCFD80214046FEF76E
:103F5000B8FD36E07088A0BB11F07F0F1CBF404653
:103F6000FEF7B5FD404600F080F900F040F828E08B
:103F7000142001F07F023B7842434244022B02F5B9
:103F8000AA7402D0032B0FD017E0002918BF802994
:103F900013D1080648BF02F114042560022221460D
:103FA000404600F04AF90CE001F00F0310FB03F06B
:103FB0000F06404408D5808C78B93146404600F061
:103FC0000EF92846BDE8F081B0F864010028F4D06D
:103FD000002918BF802903D1DFE702F11404F7E7B5
:103FE0004046FEF77AFD00B101202060D6E7FA696D
:103FF000936831464046184738B5044600200D46C0
:10400000ADF8000004F52D726888030A012B08D072
:10401000022B1ED0032B29D0062B5BD0072B60D0A0
:1040200069E01268207C136869469847EA88002A8C
:1040300064D0BDF8001000295CD0914288BF1146C1
:10404000ADF800100146BDF80020204600F0F5F85C
:1040500031BD207C51680028684604D1896A8847B0
:1040600002224270E2E7C96A8847F9E7C0B2052830
:1040700041D8DFE800F0030B131A212810684268CA
:10408000002A38D0207C69469047CFE710688268C4
:10409000002A30D0207C69469047C7E71068C26884
:1040A0004AB3207C69469047C0E71068026912B3A2
:1040B000207C69469047B9E710684269DAB1207CF4
:1040C00069469047B2E710688269A2B1207C6946D0
:1040D0009047ABE7207C70B951684A6B68469047BF
:1040E000A4E7207C38B951680A6B684690470721DD
:1040F00041709BE7294600F008F831BD00F001F857
:1041000031BD204600F0B1B82946204667E0F8B539
:104110000D460446244F68883870002639780846D2
:10412000022803D3FFF7F0FF0320F2BD94F89C228E
:10413000022A02D0032A0FD02EE0002929D0606085
:104140002046FEF7DEFF060002D0FFF7DDFF29E084
:10415000FFF7D7FF032019E031B9022084F89C0251
:10416000616000F024F814E06168884211D000F02A
:104170001DF8397861602046FEF7C3FF060008D0BD
:10418000FFF7C2FF616800F011F8022084F89C027A
:1041900008E0FFF7B6FF05E0FFF7B6FF397800F05B
:1041A00006F803263046F2BDCA4E0020C9B22046AA
:1041B000FEF7B1BF38B50D46044628782070A81C1C
:1041C000697861702D1DFFF7DDFD60802846FFF7DF
:1041D000D9FDA080A81CFFF7D5FDE08031BD10B54A
:1041E00004468021FEF76DFC2046BDE8104000210A
:1041F000FEF767BC00280B4600D1704770B5002160
:10420000044600E0491C14F8015B002DFAD10906B0
:10421000C90D891C11801178197003225A7002226D
:1042200007E010F8011BD4B2521C1955D6B2521C2B
:104230009D5501780029F4D170BD80B51346022246
:10424000C0F894228361C36101E080B513460A4639
:104250000021FEF757FC002002BD80B513460A4638
:104260000021FEF755FC002002BD80B50421C0F8F6
:10427000941200230022EBE780B50521C0F89412C8
:1042800000230022ECE7000080B50B48016841F4F0
:1042900000710160026842F480620260016841F4CA
:1042A000807101600320FEF7C4FE0020FFF7FAFBD7
:1042B00001F0D2F9002002BD003C024010B504001C
:1042C00001D1012010BD607920B900212171204663
:1042D00001F0E1F901206071002010BD38B5040043
:1042E00001D1012032BD04F13805687820B90021E0
:1042F0002970204601F0E4F90220687021680A68FC
:10430000606822F4403202430A6021684A6BA06868
:10431000D20840EAC2024A6321680A6CE068920B44
:1043200040EA82320A64002169600120687000203E
:1043300032BDF8B5044604F13807206845680668C0
:10434000EA0714D5F10512D5026822F480720260E2
:104350000121786840F001007860042220688160C3
:104360007A7000203870616909B120468847A80634
:1043700012D5B10410D52068026822F40052026000
:104380002020216888600421786840F0020000F055
:1043900049F809B120468847280712D5310510D5BC
:1043A0002068026822F400620260082021688860A8
:1043B0000421786840F0040000F034F809B1204688
:1043C000884768070CD571050AD52068026822F471
:1043D00080620260042021688860204601F0D8FBDA
:1043E000A8070DD5B1050BD52068026822F400722C
:1043F0000260022000F01CF8216909B120468847BC
:10440000E8060ED5F1040CD52068026822F480522B
:104410000260102000F00CF82046BDE8F24001F0E8
:10442000B8BBF1BD78607970002038706169704761
:104430002168886001217868786079700020387080
:10444000704770B500F048F801D1022070BD01231B
:104450001370022400EB0115547005F118035C6819
:104460009D680A2C18BF092C44EA054504D1DC6874
:1044700004F07F44254302E0DC6845EA04650468F3
:10448000144E89B9616A0E403543656205681C683F
:10449000AC6159680A2918BF092916D1D968006882
:1044A00021F07F41816210E0E1690E403543E56112
:1044B00005681C682C6159680A2918BF092904D1AC
:1044C000D968006821F07F4101620121517000200C
:1044D000107070BDF0FFFC0000F138021378012B62
:1044E0007047000070B504000D4601D1012070BD79
:1044F00004F12C06307820B900217170204601F0BB
:104500001DFB02203070211D206801F043FB626812
:104510002068294601F079FB01203070002070BD31
:10452000F8B5040025D004F13C05697821B90020D4
:104530002870204601F0E1F82421697020680268A3
:104540005208520002602068016841F40041016095
:104550002068026822F400420260FEF7ECFB01468C
:104560006068DFF8F420904205D2DFF8F03099421D
:1045700005D20120F2BDDFF8E8008142F9D32068BE
:10458000DFF8E0304668B1FBF3F3B60943EA86167C
:1045900046602668376A6068904206D34FF496708A
:1045A00043434FF47A70B3FBF0F35B1CBF0943EA5B
:1045B00087133362491E2368DE696768974206D213
:1045C0007F0000F043F8042913D2042111E0A06811
:1045D00020B907EB470700F039F805E019204743F9
:1045E00000F034F841F4804108050CBF012141F48A
:1045F0000041DFF8740006400E43DE612268136854
:10460000E169206A23F0C0030B430343136022686F
:10461000DFF85800936821690340E0680B430343C7
:1046200093602168CA68A3696069120A034343EA78
:104630000222CA602068016841F001010160002087
:104640006860202169702063A870F2BDB1FBF7F1AA
:10465000491CC1F30B017047A186010080841E0034
:1046600000093D0040420F000030FFFF007CFFFFCB
:1046700010B590F83D20202A10D100F028F80268EB
:10468000536A23F0100353620268536A194351625C
:1046900001680A6842F001020A6021E0022010BDB0
:1046A00010B590F83D20202A0FD100F010F84FF6F9
:1046B000F07203685C6A1440214389B25962016850
:1046C0000B6843F001030B600AE0022010BD2423B5
:1046D00080F83D3002681468640864001460704714
:1046E000202180F83D10002010BD000038B50400E6
:1046F00001D1012032BD0020A06204F1500568788C
:1047000020B900212970204601F0FBF802206870D2
:1047100000F027F86268A168E06823680A4321690D
:10472000024360690A43A169024301F40071E06930
:104730000A43216A0243A06A0A4302431A60A1693C
:10474000606A2268090C01F004010143516020688D
:10475000C16921F40061C1610020686001216970B4
:1047600032BD2068016821F04001016070470000FF
:1047700038B5040001D1012032BD00F024F818B989
:1047800000F01DF801F0EEF80FE00068C16841F09C
:104790000101C160816801F00701062903D00168A9
:1047A00041F0010101600020704702206870211D66
:1047B000206800F00DF901206870002032BD002152
:1047C00029702046704704F13C056878704710B5A1
:1047D0000446206801698A0715D5C1688A0712D581
:1047E0006FF00201016101222277806910F0030F4E
:1047F000204602D001F04AFA03E001F048FA00F046
:1048000087F800202077206801694A0715D5C1681C
:104810004A0712D56FF004010161022222778069F4
:1048200010F4407F204602D001F030FA03E001F09E
:104830002EFA00F06DF800202077206801690A0741
:1048400015D5C1680A0712D56FF00801016104226D
:104850002277C06910F0030F204602D001F016FA4B
:1048600003E001F014FA00F053F8002020772068EC
:104870000169CA0615D5C168CA0612D56FF01001C4
:10488000016108222277C06910F4407F204602D0DF
:1048900001F0FCF903E001F0FAF900F039F800202A
:1048A000207720680169CA0708D5C168CA0705D5FD
:1048B0006FF0010101612046FFF794F8206801695B
:1048C0000A0608D5C1680A0605D56FF080010161A6
:1048D000204601F0DDF9206801694A0608D5C16863
:1048E0004A0605D56FF040010161204601F0D1F97B
:1048F000206801698A060AD5C1688A0607D56FF063
:10490000200101612046BDE8104001F0C3B910BD8F
:10491000204601F0C0B938B500F04EF801D10220B0
:1049200032BD0120207002226270DFF83C012A684B
:104930009368034093600868020018BF10282DD0C8
:10494000202818BF302829D0402823D0502816D03E
:10495000602818D0702803D0B0F5005F07D021E0A0
:1049600000F025F82868816841F0770105E000F043
:104970001EF82868816841F48041816012E000F0EF
:1049800012F850210BE0CA684968286800F093F8D3
:10499000602104E000F007F8402100E001462868AB
:1049A00000F09BF80EE0CA684968286874E0CB689C
:1049B0004A688968286898E0054605F13C04207833
:1049C000012870470120607000212170002032BD55
:1049D000F0B5264C0568264B264E274FDFF89CC0C5
:1049E000A04218BFB0F1804F07D0604518BFB84251
:1049F00003D0B04218BF98420DD14A6825F0700527
:104A00001543A04218BFB0F1804F17D060451CBFBE
:104A1000B842B04212D098421CBF194A90420DD001
:104A2000184EB0421CBF184A904207D0174EB042F1
:104A30001FBF174A9042174EB04203D1CA6825F4EF
:104A4000407515434A6925F0800515430560A0426D
:104A50008D68C5620A68826212BF98420969016363
:104A600001224261F0BD00008800FFFF000001400C
:104A700000040140000C0040000800400004004019
:104A8000004001400044014000480140001800403F
:104A9000001C00400020004010B5036A046A64084E
:104AA0006400046223F00A03846924F0F00444EAF9
:104AB0000214846123E010B5036A23F0100303623B
:104AC0008369046A23F4704343EA023324F0A004A8
:104AD000836144EA0114046210BD826822F070020E
:104AE000114341F007018160704710B5846824F4D8
:104AF0007F442143114341EA0321816010BD1943E2
:104B0000016210BD70B500F13C031A78012A01D191
:104B1000022070BD01221A7002245C7005686E6864
:104B2000AC680A6826F0700616436E600268114889
:104B3000824218BFB2F1804F11D00F4882421CBF91
:104B40000E4DAA420BD00E4882421CBF0D4DAA4208
:104B500005D00D4882421CBF0C4DAA4204D14868C2
:104B600024F08004044394600121597000201870DF
:104B700070BD00000000014000040040000800403B
:104B8000000C0040000401400040014000180040BB
:104B900038B5040001D1012032BD00F021F808B978
:104BA00000F022F800F012F800F023F8FFE741616E
:104BB00000F001F832BD2068C16841F40051C160C5
:104BC0000020686020216970A970704724206870F7
:104BD0002068C16821F40051C160204600F013B87C
:104BE00004F138056878704700212970204600F0EC
:104BF000CCBE2068016921F49041016120684169BF
:104C000021F02A017047D0B5064664273268116941
:104C1000F06821F44051014311611924D3682D48F3
:104C2000B168034030690B4371690343F0690B437A
:104C30000343D3605169B06921F44071014351616C
:104C4000F36925482549B3F5004F1FD18A4218BFA3
:104C5000824202D1FEF777F801E0FEF76CF80246D7
:104C6000A4FB02017268D30F5200FEF759FF00F057
:104C700037F8FF0032376420B7FBF0F0420002F44F
:104C8000F87202EB011200F007001DE08A4218BF23
:104C9000824202D1FEF757F801E0FEF74CF80246D7
:104CA000A4FB02017268930F9200FEF739FF00F037
:104CB00017F83F0132376420B7FBF0F000F0F00244
:104CC00002EB011200F00F00316880188860D0BD3F
:104CD00000000000F369FFFF0014014000100140D4
:104CE0006421B0FBF1F107FB11077047014600207A
:104CF000842918BFC81C704780B501F0DAF800207D
:104D000002BD38B5044684B0606900281CBFA069A4
:104D100000280D4612D0B4F90800FFF7E7FFA1699B
:104D200002912B46626901920090226921686068B5
:104D300000F0B2FF0390039805B030BDB4F908004D
:104D4000FFF7D4FF03A9019100902B462269216847
:104D5000606892B200F0CFFF0128ECD00020EBE7B2
:104D600080B500B9012001F085F8002002BD1CB516
:104D700043684BB1012917D103240094002200217C
:104D8000012001F060FB16BD01290DD10322002195
:104D9000012001F088FB040004D000230022002140
:104DA00001F0ABFB204616BD002016BD2DE9F843EF
:104DB000040016D02078DFF80863C10713D5B06867
:104DC00000F00C00042807D0B06800F00C000828A0
:104DD0003ED1706841023BD53068810303D56068DD
:104DE000002800F0FF802078B64F810719D5B06801
:104DF00010F00C0F07D0B06800F00C0008285CD150
:104E00007068410259D43068810703D5E0680128F1
:104E100040F0E8803168206921F0F80141EAC001E2
:104E20003160217808076CD56069A749002862D0F5
:104E300001220A60FDF728F90546706F810700F12D
:104E4000D380FDF721F9401B0228F6D9032034E175
:104E50006068B0F5803F04D1306840F48030306045
:104E600011E0B0F5A02F306806D140F4802030600A
:104E7000316841F4803105E020F4803030603168E1
:104E800021F480213160606858B1FDF7FDF80546D6
:104E900030688103A7D4FDF7F7F8401B6528F7D3E6
:104EA000D4E7FDF7F1F80546306881039BD5FDF79F
:104EB000EBF8401B6528F7D3C8E7E06870B1012123
:104EC0003960FDF7E1F805463068810700F1B880E8
:104ED000FDF7DAF8401B0228F6D9B7E73860FDF78E
:104EE000D3F80546316888079BD5FDF7CDF8401B00
:104EF0000228F7D9AAE70860FDF7C6F80546706FE3
:104F0000810771D5FDF7C0F8401B0228F7D99DE74E
:104F10000528306F06D140F004003067306F40F054
:104F2000010005E0400840003067306F20F00400C9
:104F3000306741F28938A06868B1FDF7A5F881466D
:104F4000306F810700F18980FDF79EF8A0EB090022
:104F50004045F5D37AE7FDF797F88146306F810732
:104F60007BD5FDF791F8A0EB09004045F6D36DE73E
:104F7000FDF78AF8401B022840F2828066E7FDF7C1
:104F800083F8001B022840F293805FE70020386618
:104F9000FDF77AF804463068810140F18D80FDF715
:104FA00073F8001B0228F6D950E701281AD0706860
:104FB000E26900F48001914202BF00F03F01226AE1
:104FC00091420FD147F6C071626A0140914202BF1F
:104FD00000F44031A26A914202BF00F07060E16AC1
:104FE000884269D0012068E0207841073AD5306CCA
:104FF0000025C1000AD400950125316C41F0805193
:105000003164306C00F0805000900098DFF8BC8074
:10501000D8F80000C1051BD4D8F8000040F4807017
:10502000C8F80000FDF730F88146D8F80000C10547
:105030000ED4FDF729F8A0EB09000228F5D905E701
:105040003068216920F0F80040EAC1003060E8E6ED
:10505000A06801287FF45CAF60E71DB1306C20F0E0
:1050600080503064A06938B3B16801F00C010829A0
:105070009BD002288AD100203866FDF705F8054646
:10508000306881013FF574AFE269206A616A0243CA
:10509000A06A400842EA8112401E42EA0042E06AE9
:1050A00042EA0062726001213966FCF7EDFF0446B6
:1050B000306881017FF563AF0020BDE8F28300BF57
:1050C0000038024000004742800E47420070004016
:1050D0002DE9FC410446DFF810622078DFF80C521D
:1050E000DFF80C8210F0430F75D00020C8F80000E4
:1050F000FCF7CAFF0746296808013ED5FCF7C4FF44
:10510000C01B0228F7D9032035E0FCF7BDFFC01B08
:1051100002285DD9F7E7FCF7B7FFC01B022864D966
:10512000F1E7FCF7B1FFC01B022840F28B80EAE7F1
:10513000FCF7AAFF801B022840F29F80E3E7FCF700
:10514000A3FFC01B41F289318842C0F0B380DAE787
:10515000A86820F4F810A860286FA16AC1F30B01B9
:10516000084328672078C10604D594F82C00DFF89E
:10517000841108600020BDE8F6812078C10705D5BC
:10518000A1686068090741EA8011316020788107D1
:105190000CD53068E268616800F09FF83060B06854
:1051A000E1694009491E41EA4010B060207841069B
:1051B00008D5E1686068090641EA8011A06841EA03
:1051C000007131600121C8F80010FCF75DFF07464F
:1051D0002868010199D5207810F00C0F36D00020F6
:1051E000C8F80800FCF750FF07462868810092D4F1
:1051F000207841070DD570686269216900F06DF86B
:105200007060B068216A20F4F850491E40EA01201D
:10521000B060207801070FD57068216900F07060D8
:1052200040EA8110A16940EA01707060B168606A6B
:1052300021F440310143B1600121C8F80810FCF7A6
:1052400023FF0746286881007FF56BAF2078810631
:1052500088D500200090296CDFF89C7041F08051C7
:105260002964286C00F0805000900098396841F45F
:1052700080713960FCF708FF06463868C1057FF584
:1052800057AF286F10F440701EBFA16A01F440713F
:10529000884213D0286FDFF8641001220A600023CF
:1052A0000B6020F440702867286FC10706D5FCF713
:1052B000EBFE0746286F81077FF541AFA16A01F435
:1052C0004070B0F5407F7FF443AFAA680C4822F4E9
:1052D000F81201401143A9603EE7120642EA81122A
:1052E00000F0E0401043704784380240003802402C
:1052F00068004742E011474200700040400E4742BC
:10530000FFFCFF0F70B5040001D1012070BD04F156
:10531000A005687820B900212970204600F03DFAE8
:10532000022068702068816921F0704181612268E3
:1053300093696668A068E168064320690E430643E6
:10534000334393612168DFF8A8028A6802408A60CB
:1053500021688A686369A66946EA034632438A601F
:105360002168CA680240CA602168CA68E369266A7F
:1053700046EA03463243CA6021680A6902400A616C
:1053800021680A69636AA66A46EA034632430A61EB
:1053900021684A691040486120684169E26A236BCC
:1053A00043EA02431943416104F134002368417820
:1053B0008278DE6A06F07F46DE6212042368DE6AC7
:1053C000007842EA012101433143D9622068416BF0
:1053D00041F0060141632068816941F0010181616A
:1053E000002068600121697070BDF8B5044604F1C1
:1053F000A0052068866B476B71070ED57A070CD520
:10540000416B21F00401416304202168C863042139
:10541000686840F0010000F03CF8B0070FD5B9070C
:105420000DD52068416B21F0020141630220216803
:10543000C8630421686840F0020000F02AF806F012
:10544000010107F0010001420DD02068416B4908BD
:105450004900416301202168C863687000202870FA
:10546000204601F06BF9300712D5390710D52068B6
:10547000416B21F00801416308202168C8630122C3
:105480006A70002028702046BDE8F24001F057B94C
:10549000F1BD6860697000202870204601F050B9A5
:1054A0002DE9F843044604F1A00588462878012830
:1054B000914608BF022013D03427012007FB09F7CB
:1054C00028700226E7196E7007F138003422FDF7C4
:1054D0003FFB4A464146204600F00BF800F002F838
:1054E000BDE8F283216801204862687000202870BE
:1054F0007047F0B503684C68D86803EBC212C0F37C
:105500000B4084320419506800F47040506000274A
:105510000D68D868C0F30B4045196D1C45EA04447A
:105520005460C868DC68C4F30A042018946804F462
:10553000704494608C68DB68C3F30A031C19641C14
:1055400044EA0040906001F130031069C008C000D7
:105550001061086910619C7858788D699669976127
:105560001B7843EA002040EA044040EA056090616D
:105570005069000A0002506148695061D3691D48B2
:105580000340D361086ACB690343D361936A97628E
:105590004B6A9362086908B904230EE0012808BF2A
:1055A00003230AD0042818BF022803D0032818BFF9
:1055B000072801D1022300E00123D06A00F0E02097
:1055C000D0628C6A4D6808685C432D1A6B43DB1C03
:1055D00043EA0443D362106BC00AC0021063C86A76
:1055E0001063116841F001011160F0BD000000007E
:1055F00000F800F0F8F8FFFF014604220E4801F021
:1056000030B910B50C4C0D4901222046FDF750FD74
:1056100008B1FEF721FA0A492046FDF760FD08B1FE
:10562000FEF71AFA2046FDF76AFD18B1BDE81040F2
:10563000FEF712BA10BD0000944100201C000020AB
:105640006C0000200248416802788A184260704766
:105650000C0000207047000082B000200090002263
:10566000DFF8DC04416841F480414160416801F4A5
:1056700080410091009900920F21036843F080530C
:105680000360006800F08050009000986FF0010007
:1056900002B0FDF7DBBC81B00068DFF8A8148842D7
:1056A0000CD10022DFF8A0040092016841F480517F
:1056B0000160006800F480500090009801B07047CD
:1056C0000068DFF88814884200D0704780B5002257
:1056D000DFF874040092016841F4000101600521C3
:1056E000006800F40000009000985A20FDF7AEFC1E
:1056F000BDE802405A20FDF7C6BC38B586B0044666
:1057000001A800F011FA2468DFF84454AC4242D1F9
:105710000020DFF834440090216841F0040121604A
:105720000021206800F004000090009800914FF4E0
:105730000071226842F0010222601222206800F00B
:10574000010000900098DFF80C0401910292012101
:105750000391002204210591049201A9FDF75AFB4F
:1057600012210291012203924FF4807000210190D6
:1057700004910422059201A9DFF8DC03FDF74AFB3E
:1057800000200090216941F400012161206900F4AA
:1057900000000090009807B030BD38B586B000F02A
:1057A000C1F92468DFF8B453AC4240F08F80002088
:1057B00005900022DFF89003DFF8A443416941F02F
:1057C00080614161416901F0806100F081F843F03E
:1057D00020030360016801F0200100F079F843F034
:1057E00001030360016801F0010100F071F843F06A
:1057F00002030360016801F0020100F069F843F060
:1058000040030360016801F0400100F020F94FF40B
:105810008061036843F0080303600222006800F01F
:10582000080005900598DFF83C03009101920021E3
:10583000029103910E2104916946FDF7EBFA00F005
:105840004CF841F6580000F055F8DFF80C03FDF76E
:10585000E1FA00F042F8032000F043F800F03DF8D0
:105860004FF4706000F046F82046FDF7D3FA00F0E0
:1058700034F84FF40C6000F03DF8DFF8EC422046BD
:10588000FDF7C8FA4FF498600221002200900191C0
:10589000029203920E2204926946DFF8B802FDF7E5
:1058A000B9FA00F01AF8482000F024F800F0CCF81B
:1058B00000F013F84FF4A05000F013F80022052177
:1058C0005820FDF7C3FB5820FDF7DDFB07B030BDC6
:1058D0000591059905920368704700220292039290
:1058E00070470221009001910922049269462046E6
:1058F000FDF790BA0221009001910E2204926946B0
:10590000704738B586B0044601A800F00DF9246848
:10591000974DAC4224D10020009000228A48416972
:1059200041F480114161416901F4801100910099B5
:1059300000924FF46071036843F020030360022279
:10594000006800F0200000900098864801910292C3
:105950000021039104910521059101A9FDF75AFA4F
:1059600007B030BD81B00068824988420BD1002267
:105970007E480092016841F001010160006800F07A
:1059800001000090009801B0704710B586B000F09B
:10599000C9F82168784C6C48A14234D100210591A6
:1059A000026942F4801202610022016901F480114F
:1059B00000F04DF84FF48052036843F00803036091
:1059C0000023006800F008000590059961480092E6
:1059D00001930322029300F090F802210191012229
:1059E0000292042003210090039108220492694648
:1059F00000F02AF8002205213520FDF727FB35208D
:105A0000FDF741FB1EE05D4A91421BD1002105914B
:105A1000426942F0100242610022416901F0100126
:105A20000591059905924FF4C061036843F00103A5
:105A30000360022200F070F8474800F062F8072186
:105A400000F05AF806B010BD4D48FDF7E3B90591D6
:105A500005990592036843F004030360016801F0AF
:105A60000401059105990592704780B586B000F054
:105A70005AF84449086800283CD101220A60059080
:105A800002224148016841F0010101604FF63F01E7
:105A900000F042F8334800F034F80C2100F02CF804
:105AA00000F035F8012000F042F82A48FDF7B2F97D
:105AB00000F02DF848F2331000F039F82A48FDF7CD
:105AC000A9F900F024F84FF6837000F030F82F4861
:105AD000FDF7A0F900F01BF84CF2037000F027F876
